S01700004763634170706C69636174696F6E312E737265635B
S11300000C942A000C9447000C9447000C9447006D
S11300100C9447000C9447000C9447000C94470040
S11300200C9447000C9439030C9447000C9447003B
S11300300C9447000C9447000C9447000C94470020
S11300400C9447000C9447000C9447000C94470010
S11300500C94470011241FBECFE5D8E0DEBFCDBF0E
S113006010E0A0E6B0E0E4E2F2E102C005900D92F7
S1130070AC37B107D9F720E0ACE7B0E001C01D927E
S1130080AE37B207E1F70E94D1030C9410090C9427
S11300900000672B09F0DFC0009721F48BB38E7F3B
S11300A08BBB08958130910521F48BB38D7F8BBB7D
S11300B008958230910521F48BB38B7F8BBB089517
S11300C08330910521F48BB3877F8BBB08958430F3
S11300D0910521F48BB38F7E8BBB089585309105F8
S11300E021F48BB38F7D8BBB08958630910521F469
S11300F08BB38F7B8BBB08958730910521F48BB331
S11301008F778BBB08958A30910521F488B38E7F55
S113011088BB08958B30910521F488B38D7F88BB0B
S113012008958C30910521F488B38B7F88BB0895A2
S11301308D30910521F488B3877F88BB08958E3074
S1130140910521F488B38F7E88BB08958F30910583
S113015021F488B38F7D88BB08958031910521F403
S113016088B38F7B88BB08958131910521F488B3CE
S11301708F7788BB08958431910521F485B38E7FF0
S113018085BB08958531910521F485B38D7F85BBA9
S113019008958631910521F485B38B7F85BB08953D
S11301A08731910521F485B3877F85BB0895883114
S11301B0910521F485B38F7E85BB0895893191051E
S11301C021F485B38F7D85BB08958A31910521F48F
S11301D085B38F7B85BB08958B31910521F485B35D
S11301E08F7785BB08958E31910521F482B38E7F7C
S11301F082BB08958F31910521F482B38D7F82BB38
S113020008958032910521F482B38B7F82BB0895D7
S11302108132910521F482B3877F82BB08958232B3
S1130220910521F482B38F7E82BB089583329105B8
S113023021F482B38F7D82BB08958432910521F429
S113024082B38F7B82BB0895859709F0E1C082B3A6
S11302508F7782BB0895009721F48BB381608BBBA9
S113026008958130910521F48BB382608BBB08958E
S11302708230910521F48BB384608BBB0895833065
S1130280910521F48BB388608BBB0895843091056C
S113029021F48BB380618BBB08958530910521F4E3
S11302A08BB380628BBB08958630910521F48BB3A8
S11302B080648BBB08958730910521F48BB38068EB
S11302C08BBB08958A30910521F488B3816088BB83
S11302D008958B30910521F488B3826088BB08951A
S11302E08C30910521F488B3846088BB08958D30E7
S11302F0910521F488B3886088BB08958E309105F8
S113030021F488B3806188BB08958F30910521F46E
S113031088B3806288BB08958031910521F488B345
S1130320806488BB08958131910521F488B3806885
S113033088BB08958431910521F485B3816085BB20
S113034008958531910521F485B3826085BB0895B4
S11303508631910521F485B3846085BB0895873186
S1130360910521F485B3886085BB08958831910592
S113037021F485B3806185BB08958931910521F409
S113038085B3806285BB08958A31910521F485B3D4
S1130390806485BB08958B31910521F485B3806811
S11303A085BB08958E31910521F482B3816082BBAF
S11303B008958F31910521F482B3826082BB089540
S11303C08032910521F482B3846082BB0895813226
S11303D0910521F482B3886082BB0895823291052D
S11303E021F482B3806182BB08958332910521F4A4
S11303F082B3806282BB08958432910521F482B372
S1130400806482BB0895859719F482B3806882BBA7
S11304100895CF93C82F80FF07C061E070E084E1A6
S113042090E00E94490006C060E070E084E190E042
S11304300E944900C1FF07C061E070E085E190E0DF
S11304400E94490006C060E070E085E190E00E94EF
S11304504900C2FF07C061E070E086E190E00E94BD
S1130460490006C060E070E086E190E00E94490027
S1130470C3FF07C061E070E087E190E00E9449009B
S113048006C060E070E087E190E00E944900CF91EF
S11304900895CF93C82F60E070E08AE190E00E9455
S11304A049008C2F0E94090261E070E08BE190E02A
S11304B00E9449008FEC97E00197F1F700C000001B
S11304C060E070E08BE190E00E9449008FEC97E0DF
S11304D00197F1F700C00000CF91089580E00E94D9
S11304E0490281E00E9449020895CF93813099F432
S11304F080E8860F90E095958795959587959595D5
S1130500879595958795C62FCF700E9449028C2FA9
S11305100E94490214C0823091F480EC860F90E06E
S113052095958795959587959595879595958795AF
S1130530C62FCF700E9449028C2F0E944902CF918E
S1130540089580E00E9409028FE39CE90197F1F786
S113055000C0000083E00E9449028FE097E2019707
S1130560F1F700C0000083E00E9449028FEE95E598
S11305700197F1F700C0000083E00E94490282E085
S11305800E94490282E00E94490288E00E944902D6
S113059080E00E9449028CE00E94490280E00E94AF
S11305A0490286E00E9449020895CF93DF93D82F31
S11305B0DF70C82FC07F61E070E08AE190E00E94A4
S11305C049008C2F90E095958795959587959595FD
S11305D08795959587950E94090261E070E08BE10B
S11305E090E00E9449008FEC97E00197F1F700C07A
S11305F0000060E070E08BE190E00E9449008FEC25
S113060097E00197F1F700C000008D2F0E940902C6
S113061061E070E08BE190E00E9449008FEC97E08C
S11306200197F1F700C0000060E070E08BE190E01A
S11306300E9449008FEC97E00197F1F700C0000099
S1130640DF91CF9108950F931F93CF93DF938C0184
S1130650C0E0D0E0F801EC0FFD1F8081882321F079
S11306600E94D5022196F6CFDF91CF911F910F9171
S113067008951F920F920FB60F9211248F939F9398
S113068080917C0090917D00019690937D008093F1
S11306907C009F918F910F900FBE0F901F90189523
S11306A02F923F924F925F926F927F928F929F927E
S11306B0AF92BF92CF92DF92EF92FF920F931F936C
S11306C0CF93DF9300D000D01F92CDB7DEB70E9446
S11306D0A1060E94F205422E3D834C83B52FF62FCE
S11306E0E72F282E392E712C812C912C19821A82F5
S11306F01B82512C612C242D3D814C815B2F6F2F4B
S11307007E2F822D932DA0E00E94F00851F14CF130
S11307100F2EFAE0AF2EF02DB12CC12CD12CE12CF0
S1130720F12C00E010E00E940608422E3D834C8329
S1130730B52FF62FE72F282E392E272D382D492DAA
S113074059816A817B81852D962DA1E00E94DB0869
S1130750722E832E942E59836A837B83582E692E9E
S1130760CACF272D382D492D59816A817B81852D4A
S1130770962D0F900F900F900F900F90DF91CF91C7
S11307801F910F91FF90EF90DF90CF90BF90AF90AB
S11307909F908F907F906F905F904F903F902F909D
S11307A00895CF93DF93CDB7DEB728970FB6F894AB
S11307B0DEBF0FBECDBF81E88ABB8FEF82BB84BB97
S11307C00E94A1028FE19EE40197F1F700C00000AE
S11307D0789484E089BF1FBC8FE19EE40197F1F710
S11307E000C000002DB63EB68BB381608BBB9AE18E
S11307F09A95F1F700C08BB38E7F8BBB1DBC1CBCDC
S113080081E48EBD80E288BF84E088BF08B605FE1F
S1130810FDCF1DBC1CBC81E08EBD80E288BF84E09E
S113082088BF10927D0010927C0008B605FC0CC0B5
S113083086B597B580369A4E10F081E001C080E00D
S1130840882399F380E001C081E0811113C08BB348
S11308508F778BBB0E946E0261E081E00E9475027B
S113086080E690E00E9423030FB6F8943EBE0FBECC
S11308702DBEB8CF66B577B580E090E00E946606DD
S113088029E23CE349EE53E40E9480054B015C01FC
S113089020E030E040E252E40E947B05181674F038
S11308A020E030E040E050E4C501B4010E947E073E
S11308B0882324F08BB380688BBB03C08BB38F7702
S11308C08BBB0E946E02C501B4010E94A1066B019C
S11308D07C019B01AC01C501B4010E940E052B01F2
S11308E03C01C501B4010E94500329833A834B8320
S11308F05C836D837E838F83988789819A81880F37
S1130900991F2DB73EB7281B390B0FB6F8943EBF7D
S11309100FBE2DBF8DB79EB701964C01C701B6011E
S11309200E942E06B62FA72FE0E0F0E029813A813D
S11309304B815C816D817E818F819885AE2EBF2E27
S11309401F2F110F110BC12ED12EE12EF12E012FCD
S11309500E94E70891F08CF08B2F9A2F6AE070E0E8
S11309600E94F007DF01AA0FBB1FA80DB91D8D93CC
S11309709C93B62FA72F3196D9CF61E081E00E94D6
S1130980750281E790E00E94230309811A810150D6
S11309901109112364F0F801EE0FFF1FE80DF91D92
S11309A08081805D0E94D50201501109F2CF8EE250
S11309B00E94D50220E030E040E251E4C301B201DC
S11309C00E9483074B015C010E94A1060E942E062F
S11309D06B017C0180E38C0D0E94D502B601DD0C15
S11309E0880B990B0E9466069B01AC01C501B401FA
S11309F00E940E0520E030E040E251E40E948307AB
S1130A000E94A1060E942E0680E3860F0E94D50252
S1130A100FB6F8943EBE0FBE2DBEE4CE5058BB2791
S1130A20AA270E9426050C942C070E941E0738F062
S1130A300E94250720F039F49F3F19F426F40C9402
S1130A400B070EF4E095E7FB0C94DC06E92F0E94FB
S1130A503D0758F3BA17620773078407950720F018
S1130A6079F4A6F50C9477070EF4E0950B2EBA2FC3
S1130A70A02D0B01B90190010C01CA01A0011124A0
S1130A80FF27591B99F0593F50F4503E68F11A164C
S1130A90F040A22F232F342F4427585FF3CF4695DD
S1130AA037952795A795F0405395C9F77EF41F16FF
S1130AB0BA0B620B730B840BBAF09150A1F0FF0FC9
S1130AC0BB1F661F771F881FC2F70EC0BA0F621FB5
S1130AD0731F841F48F4879577956795B795F795A5
S1130AE09E3F08F0B0CF9395880F08F09927EE0F3A
S1130AF09795879508950E94B80608F481E00895B3
S1130B000E9494050C942C070E94250758F00E941B
S1130B101E0740F029F45F3F29F00C94DC065111C4
S1130B200C9478070C940B070E943D0768F39923F3
S1130B30B1F3552391F3951B550BBB27AA276217D5
S1130B407307840738F09F5F5F4F220F331F441FE2
S1130B50AA1FA9F335D00E2E3AF0E0E832D0915016
S1130B605040E695001CCAF72BD0FE2F29D0660F03
S1130B70771F881FBB1F261737074807AB07B0E846
S1130B8009F0BB0B802DBF01FF2793585F4F3AF04C
S1130B909E3F510578F00C94DC060C9478075F3F77
S1130BA0E4F3983ED4F3869577956795B795F795D2
S1130BB09F5FC9F7880F911D9695879597F90895BA
S1130BC0E1E0660F771F881FBB1F62177307840756
S1130BD0BA0720F0621B730B840BBA0BEE1F88F765
S1130BE0E0950895BEE304D008F490E80895BFE3C7
S1130BF022273327A9010E94450760F19F5748F136
S1130C00B91740F1BFE3B91B9927B8503AF4660FFE
S1130C10771F881F991FB395D2F316C0B8504AF0B6
S1130C20232F342F452F562F672F782F8827B8501E
S1130C30BAF7B85F49F086957795679557954795C4
S1130C4037952795BA95B9F716F40E940E0788943C
S1130C500895889460E070E0CB0108950E94350601
S1130C606894B1110C94780708950E94450788F0A0
S1130C709F5798F0B92F9927B751B0F0E1F0660F5C
S1130C80771F881F991F1AF0BA95C9F714C0B1309D
S1130C9091F00E947707B1E008950C947707672FCD
S1130CA0782F8827B85F39F0B93FCCF386957795CC
S1130CB06795B395D9F73EF49095809570956195B5
S1130CC07F4F8F4F9F4F0895E89409C097FB3EF4E0
S1130CD090958095709561957F4F8F4F9F4F992385
S1130CE0A9F0F92F96E9BB279395F6958795779503
S1130CF06795B795F111F8CFFAF4BB0F11F460FFC3
S1130D001BC06F5F7F4F8F4F9F4F16C0882311F01A
S1130D1096E911C0772321F09EE8872F762F05C02E
S1130D20662371F096E8862F70E060E02AF09A95C9
S1130D30660F771F881FDAF7880F9695879597F9BE
S1130D4008950E945F0790F09F3748F4911116F0C0
S1130D500C94780760E070E080E89FEB089526F437
S1130D601B16611D711D811D0C94E2060C94FD0679
S1130D70990F0008550FAA0BE0E8FEEF16161706A8
S1130D80E807F907C0F012161306E407F50798F010
S1130D90621B730B840B950B39F40A2661F0232B29
S1130DA0242B252B21F408950A2609F4A140A695A5
S1130DB08FEF811D811D089597F99F6780E870E08A
S1130DC060E00895882371F4772321F09850872BED
S1130DD0762F07C0662311F499270DC09051862BF6
S1130DE070E060E02AF09A95660F771F881FDAF7A3
S1130DF0880F9695879597F908959F3F31F0915004
S1130E0020F4879577956795B795880F911D9695EA
S1130E10879597F908959FEF80EC089590958095B4
S1130E207095609550954095309521953F4F4F4F63
S1130E305F4F6F4F7F4F8F4F9F4F089500240A9449
S1130E401616170618060906089500240A941216A1
S1130E501306140605060895092E0394000C11F4D4
S1130E60882352F0BB0F40F4BF2B11F460FF04C081
S1130E706F5F7F4F8F4F9F4F089557FD9058440FDA
S1130E80551F59F05F3F71F04795880F97FB991FE5
S1130E9061F09F3F79F087950895121613061406A2
S1130EA0551FF2CF4695F1DF08C01616170618062F
S1130EB0991FF1CF869571056105089408950E94E4
S1130EC04507A0F0BEE7B91788F4BB279F3860F444
S1130ED01616B11D672F782F8827985FF7CF869550
S1130EE077956795B11D93959639C8F30895E8945D
S1130EF0BB2766277727CB0197F908950E94B80688
S1130F0008F48FEF08950E9496070C942C070E9412
S1130F101E0738F00E94250720F0952311F00C9449
S1130F20DC060C940B0711240C9478070E943D07EF
S1130F3070F3959FC1F3950F50E0551F629FF00128
S1130F40729FBB27F00DB11D639FAA27F00DB11D41
S1130F50AA1F649F6627B00DA11D661F829F2227CA
S1130F60B00DA11D621F739FB00DA11D621F839F51
S1130F70A00D611D221F749F3327A00D611D231F27
S1130F80849F600D211D822F762F6A2F11249F5775
S1130F9050409AF0F1F088234AF0EE0FFF1FBB1F78
S1130FA0661F771F881F91505040A9F79E3F510537
S1130FB080F00C94DC060C9478075F3FE4F3983ED1
S1130FC0D4F3869577956795B795F795E7959F5FE1
S1130FD0C1F7FE2B880F911D9695879597F9089573
S1130FE097FB072E16F4009407D077FD09D00E94D2
S1130FF0FC0807FC05D03EF4909581959F4F089519
S1131000709561957F4F0895689401C0E894F92F15
S1131010F12B12F00C943808A0E0B0E0E2E1F8E023
S11310200C94AA08092E059422F40E949408112312
S113103092F4F0E80F26FFEFE094F09400951095F9
S1131040B094C094D094A194BF0ACF0ADF0AEF0AE7
S1131050FF0A0F0B1F0B0E94430807FC0E94940811
S1131060CDB7DEB7ECE00C94C608689401C0E894F0
S11310708F929F92CF93DF930E944308DF91CF9189
S11310809F908F90089588249924F401E401B0E49A
S11310909F93AA279A158B049C04ED05FE05CF05A2
S11310A0D007A10798F4AD2FDC2FCF2FFE2FE92D09
S11310B0982C892E982F872F762F652F542F432F06
S11310C0322F2227B85031F7BF9127C01B2EBF9172
S11310D0BB27220F331F441F551F661F771F881F0E
S11310E0991F881C991CEE1FFF1FCC1FDD1FAA1F10
S11310F0BB1F8A149B04EC05FD05CE05DF05A00784
S1131100B10748F08A189B08EC09FD09CE09DF09EC
S1131110A00BB10B21601A94E1F62EF49401AF01F7
S1131120BE01CD01000C0895609570958095909551
S113113030954095509521953F4F4F4F5F4F6F4FDE
S11311407F4F8F4F9F4F08952F923F924F925F9200
S11311506F927F928F929F92AF92BF92CF92DF92C3
S1131160EF92FF920F931F93CF93DF93CDB7DEB728
S1131170CA1BDB0B0FB6F894DEBF0FBECDBF0994BC
S11311802A88398848885F846E847D848C849B8413
S1131190AA84B984C884DF80EE80FD800C811B8121
S11311A0AA81B981CE0FD11D0FB6F894DEBF0FBE50
S11311B0CDBFED0108950024A7FD00942A0F301D32
S11311C0401D501D601D701D801D901D08952A1521
S11311D03B054C055D056E057F0580079107089565
S11311E00024A7FD00942A1730054005500560052A
S11311F07005800590050895AA1BBB1B51E107C02B
S1131200AA1FBB1FA617B70710F0A61BB70B881F92
S1131210991F5A95A9F780959095BC01CD01089521
S1071220F894FFCF6C
S113122444697374616E63653A204F4652212121E7
S10F12340044697374616E63653A200025
S9030000FC
